{
  "contractName": "Fitbody",
  "abi": [
    {
      "constant": true,
      "inputs": [
        {
          "name": "",
          "type": "uint256"
        }
      ],
      "name": "members",
      "outputs": [
        {
          "name": "backMuscle",
          "type": "uint256"
        },
        {
          "name": "chestMuscle",
          "type": "uint256"
        },
        {
          "name": "armMuscle",
          "type": "uint256"
        },
        {
          "name": "legMuscle",
          "type": "uint256"
        },
        {
          "name": "vitality",
          "type": "uint256"
        },
        {
          "name": "name",
          "type": "string"
        },
        {
          "name": "url",
          "type": "string"
        },
        {
          "name": "amount",
          "type": "uint256"
        },
        {
          "name": "LaststartRestTime",
          "type": "uint256"
        },
        {
          "name": "increaseRatio",
          "type": "uint256"
        }
      ],
      "payable": false,
      "stateMutability": "view",
      "type": "function",
      "signature": "0x5daf08ca"
    },
    {
      "constant": true,
      "inputs": [],
      "name": "owner",
      "outputs": [
        {
          "name": "",
          "type": "address"
        }
      ],
      "payable": false,
      "stateMutability": "view",
      "type": "function",
      "signature": "0x8da5cb5b"
    },
    {
      "constant": true,
      "inputs": [
        {
          "name": "",
          "type": "uint256"
        }
      ],
      "name": "bodyToOwner",
      "outputs": [
        {
          "name": "",
          "type": "address"
        }
      ],
      "payable": false,
      "stateMutability": "view",
      "type": "function",
      "signature": "0xc8bf98c7"
    },
    {
      "constant": false,
      "inputs": [
        {
          "name": "newOwner",
          "type": "address"
        }
      ],
      "name": "transferOwnership",
      "outputs": [],
      "payable": false,
      "stateMutability": "nonpayable",
      "type": "function",
      "signature": "0xf2fde38b"
    },
    {
      "anonymous": false,
      "inputs": [
        {
          "indexed": true,
          "name": "previousOwner",
          "type": "address"
        },
        {
          "indexed": true,
          "name": "newOwner",
          "type": "address"
        }
      ],
      "name": "OwnershipTransferred",
      "type": "event",
      "signature": "0x8be0079c531659141344cd1fd0a4f28419497f9722a3daafe3b4186f6b6457e0"
    },
    {
      "constant": false,
      "inputs": [
        {
          "name": "_name",
          "type": "string"
        },
        {
          "name": "_url",
          "type": "string"
        }
      ],
      "name": "creatMember",
      "outputs": [],
      "payable": true,
      "stateMutability": "payable",
      "type": "function",
      "signature": "0x08fa2627"
    },
    {
      "constant": true,
      "inputs": [],
      "name": "getBodyCount",
      "outputs": [
        {
          "name": "",
          "type": "uint256"
        }
      ],
      "payable": false,
      "stateMutability": "view",
      "type": "function",
      "signature": "0xd89edbaa"
    },
    {
      "constant": false,
      "inputs": [
        {
          "name": "id",
          "type": "uint256"
        },
        {
          "name": "choice",
          "type": "uint256"
        }
      ],
      "name": "TrainBody",
      "outputs": [],
      "payable": false,
      "stateMutability": "nonpayable",
      "type": "function",
      "signature": "0xbff3091d"
    },
    {
      "constant": false,
      "inputs": [
        {
          "name": "id",
          "type": "uint256"
        }
      ],
      "name": "RestBody",
      "outputs": [],
      "payable": false,
      "stateMutability": "nonpayable",
      "type": "function",
      "signature": "0x0bd2aa29"
    },
    {
      "constant": false,
      "inputs": [
        {
          "name": "id",
          "type": "uint256"
        }
      ],
      "name": "IncreaseNutrition",
      "outputs": [],
      "payable": false,
      "stateMutability": "nonpayable",
      "type": "function",
      "signature": "0x361f09c2"
    },
    {
      "constant": false,
      "inputs": [
        {
          "name": "id",
          "type": "uint256"
        }
      ],
      "name": "StudyKnowledge",
      "outputs": [],
      "payable": false,
      "stateMutability": "nonpayable",
      "type": "function",
      "signature": "0x240a1cff"
    }
  ],
  "bytecode": "0x6080604052336000806101000a81548173ffffffffffffffffffffffffffffffffffffffff021916908373ffffffffffffffffffffffffffffffffffffffff160217905550610fde806100536000396000f3fe6080604052600436106100a4576000357c0100000000000000000000000000000000000000000000000000000000900463ffffffff16806308fa2627146100a95780630bd2aa2914610177578063240a1cff146101b2578063361f09c2146101ed5780635daf08ca146102285780638da5cb5b14610380578063bff3091d146103d7578063c8bf98c71461041c578063d89edbaa14610497578063f2fde38b146104c2575b600080fd5b610175600480360360408110156100bf57600080fd5b81019080803590602001906401000000008111156100dc57600080fd5b8201836020820111156100ee57600080fd5b8035906020019184600183028401116401000000008311171561011057600080fd5b90919293919293908035906020019064010000000081111561013157600080fd5b82018360208201111561014357600080fd5b8035906020019184600183028401116401000000008311171561016557600080fd5b9091929391929390505050610513565b005b34801561018357600080fd5b506101b06004803603602081101561019a57600080fd5b81019080803590602001909291905050506105b4565b005b3480156101be57600080fd5b506101eb600480360360208110156101d557600080fd5b8101908080359060200190929190505050610692565b005b3480156101f957600080fd5b506102266004803603602081101561021057600080fd5b810190808035906020019092919050505061072e565b005b34801561023457600080fd5b506102616004803603602081101561024b57600080fd5b81019080803590602001909291905050506107ca565b604051808b81526020018a81526020018981526020018881526020018781526020018060200180602001868152602001858152602001848152602001838103835288818151815260200191508051906020019080838360005b838110156102d55780820151818401526020810190506102ba565b50505050905090810190601f1680156103025780820380516001836020036101000a031916815260200191505b50838103825287818151815260200191508051906020019080838360005b8381101561033b578082015181840152602081019050610320565b50505050905090810190601f1680156103685780820380516001836020036101000a031916815260200191505b509c5050505050505050505050505060405180910390f35b34801561038c57600080fd5b5061039561095d565b604051808273ffffffffffffffffffffffffffffffffffffffff1673ffffffffffffffffffffffffffffffffffffffff16815260200191505060405180910390f35b3480156103e357600080fd5b5061041a600480360360408110156103fa57600080fd5b810190808035906020019092919080359060200190929190505050610982565b005b34801561042857600080fd5b506104556004803603602081101561043f57600080fd5b8101908080359060200190929190505050610b8b565b604051808273ffffffffffffffffffffffffffffffffffffffff1673ffffffffffffffffffffffffffffffffffffffff16815260200191505060405180910390f35b3480156104a357600080fd5b506104ac610bbe565b6040518082815260200191505060405180910390f35b3480156104ce57600080fd5b50610511600480360360208110156104e557600080fd5b81019080803573ffffffffffffffffffffffffffffffffffffffff169060200190929190505050610bcb565b005b6105ae600180600180600a89898080601f016020809104026020016040519081016040528093929190818152602001838380828437600081840152601f19601f8201169050808301925050505050505088888080601f016020809104026020016040519081016040528093929190818152602001838380828437600081840152601f19601f8201169050808301925050505050505034610d20565b50505050565b6001600082815260200190815260200160002060009054906101000a900473ffffffffffffffffffffffffffffffffffffffff1673ffffffffffffffffffffffffffffffffffffffff163373ffffffffffffffffffffffffffffffffffffffff1614151561062157600080fd5b600060038281548110151561063257fe5b90600052602060002090600a020190506000610e108260080154420381151561065757fe5b049050808260040160008282540192505081905550600a8260040154111561068457600a82600401819055505b428260080181905550505050565b6001600082815260200190815260200160002060009054906101000a900473ffffffffffffffffffffffffffffffffffffffff1673ffffffffffffffffffffffffffffffffffffffff163373ffffffffffffffffffffffffffffffffffffffff161415156106ff57600080fd5b600060038281548110151561071057fe5b90600052602060002090600a02019050600281600901819055505050565b6001600082815260200190815260200160002060009054906101000a900473ffffffffffffffffffffffffffffffffffffffff1673ffffffffffffffffffffffffffffffffffffffff163373ffffffffffffffffffffffffffffffffffffffff1614151561079b57600080fd5b60006003828154811015156107ac57fe5b90600052602060002090600a02019050600381600901819055505050565b6003818154811015156107d957fe5b90600052602060002090600a0201600091509050806000015490806001015490806002015490806003015490806004015490806005018054600181600116156101000203166002900480601f0160208091040260200160405190810160405280929190818152602001828054600181600116156101000203166002900480156108a35780601f10610878576101008083540402835291602001916108a3565b820191906000526020600020905b81548152906001019060200180831161088657829003601f168201915b505050505090806006018054600181600116156101000203166002900480601f0160208091040260200160405190810160405280929190818152602001828054600181600116156101000203166002900480156109415780601f1061091657610100808354040283529160200191610941565b820191906000526020600020905b81548152906001019060200180831161092457829003601f168201915b505050505090806007015490806008015490806009015490508a565b6000809054906101000a900473ffffffffffffffffffffffffffffffffffffffff1681565b6001600083815260200190815260200160002060009054906101000a900473ffffffffffffffffffffffffffffffffffffffff1673ffffffffffffffffffffffffffffffffffffffff163373ffffffffffffffffffffffffffffffffffffffff161415156109ef57600080fd5b60018114806109fe5750600281145b80610a095750600381145b80610a145750600481145b1515610a1f57600080fd5b6000600383815481101515610a3057fe5b90600052602060002090600a020190506001821415610a8e576006816004015410151515610a5d57600080fd5b8060090154600102816000016000828254019250508190555060068160040160008282540392505081905550610b7c565b6002821415610adc576005816004015410151515610aab57600080fd5b8060090154600102816001016000828254019250508190555060058160040160008282540392505081905550610b7b565b6003821415610b2a576003816004015410151515610af957600080fd5b8060090154600102816002016000828254019250508190555060038160040160008282540392505081905550610b7a565b6004821415610b78576007816004015410151515610b4757600080fd5b8060090154600102816003016000828254019250508190555060078160040160008282540392505081905550610b79565b5b5b5b5b60018160090181905550505050565b60016020528060005260406000206000915054906101000a900473ffffffffffffffffffffffffffffffffffffffff1681565b6000600380549050905090565b6000809054906101000a900473ffffffffffffffffffffffffffffffffffffffff1673ffffffffffffffffffffffffffffffffffffffff163373ffffffffffffffffffffffffffffffffffffffff16141515610c2657600080fd5b600073ffffffffffffffffffffffffffffffffffffffff168173ffffffffffffffffffffffffffffffffffffffff1614151515610c6257600080fd5b8073ffffffffffffffffffffffffffffffffffffffff166000809054906101000a900473ffffffffffffffffffffffffffffffffffffffff1673ffffffffffffffffffffffffffffffffffffffff167f8be0079c531659141344cd1fd0a4f28419497f9722a3daafe3b4186f6b6457e060405160405180910390a3806000806101000a81548173ffffffffffffffffffffffffffffffffffffffff021916908373ffffffffffffffffffffffffffffffffffffffff16021790555050565b600060016003610140604051908101604052808c81526020018b81526020018a815260200189815260200188815260200187815260200186815260200185815260200142815260200160018152509080600181540180825580915050906001820390600052602060002090600a020160009091929091909150600082015181600001556020820151816001015560408201518160020155606082015181600301556080820151816004015560a0820151816005019080519060200190610de7929190610f0d565b5060c0820151816006019080519060200190610e04929190610f0d565b5060e08201518160070155610100820151816008015561012082015181600901555050039050336001600083815260200190815260200160002060006101000a81548173ffffffffffffffffffffffffffffffffffffffff021916908373ffffffffffffffffffffffffffffffffffffffff1602179055506001600260003373ffffffffffffffffffffffffffffffffffffffff1673ffffffffffffffffffffffffffffffffffffffff1681526020019081526020016000205401600260003373ffffffffffffffffffffffffffffffffffffffff1673ffffffffffffffffffffffffffffffffffffffff16815260200190815260200160002081905550505050505050505050565b828054600181600116156101000203166002900490600052602060002090601f016020900481019282601f10610f4e57805160ff1916838001178555610f7c565b82800160010185558215610f7c579182015b82811115610f7b578251825591602001919060010190610f60565b5b509050610f899190610f8d565b5090565b610faf91905b80821115610fab576000816000905550600101610f93565b5090565b9056fea165627a7a72305820d9a4d356eeda403264e520ec0fb35af598300f06380c52b499131613a5b1741b0029",
  "source": "pragma solidity ^0.5.0;\n\nimport \"./Ownable.sol\";\n\n\ncontract Fitbody is Ownable {\n\n    //成员属性\n    struct member {\n        uint backMuscle;   //背部肌肉 6\n        uint chestMuscle;  //胸部肌肉 5\n        // uint shoulderMuscle ; //肩部肌肉 4\n        uint armMuscle; //手臂肌肉 3\n        // uint bellyMuscle; //腹部 2\n        uint legMuscle; //腿 7\n        uint vitality;//体力值  10\n        string name;\n        string url;\n        uint256 amount;\n        uint256 LaststartRestTime;\n        uint increaseRatio;\n    }\n    \n\n    //所有者地址\n    mapping (uint256 => address) public bodyToOwner;\n    //当前账户下健身人的个数\n    mapping (address => uint256) internal ownerBodyCount;\n    \n    //当前账户下的健身人数组\n    member[] public  members;\n    \n    \n    \n    //创建健身人的私有构造函数\n    function _createMember(uint _backMuscle, uint _chestMuscle,uint _armMuscle, uint _legMuscle, uint _vitality, string memory _name, string memory _url, uint256 _amount) private {\n        //require(msg.value >= 0.001 ether);\n        \n        uint256 id = members.push(member( _backMuscle,  _chestMuscle,_armMuscle, _legMuscle,  _vitality, _name, _url, _amount, now, 1)) - 1;\n        bodyToOwner[id] = msg.sender;\n        ownerBodyCount[msg.sender] = ownerBodyCount[msg.sender] + 1;\n\n    }\n    \n    //创建健身人\n    function creatMember(string  calldata _name, string calldata _url) payable external {\n        \n        _createMember(1,1,1,1,10, _name, _url, msg.value);\n    }\n    \n\n    function getBodyCount() external view returns(uint256) {\n        return members.length;\n    }\n    \n    //训练训练不同部位，使不同部位的肌肉量增加\n    function TrainBody (uint256 id, uint choice) external  {\n        \n        require(msg.sender == bodyToOwner[id]);\n        require(choice == 1 || choice == 2 || choice == 3 || choice == 4);\n        \n        member storage myMember = members[id];\n        \n        if (choice == 1) {\n            require(myMember.vitality >= 6);\n            myMember.backMuscle += 1 * myMember.increaseRatio;\n            myMember.vitality -= 6;\n            \n            \n        } else  if (choice == 2) {\n            require(myMember.vitality >= 5);\n            myMember.chestMuscle += 1 * myMember.increaseRatio;\n            myMember.vitality -= 5;\n            \n\n        } else  if (choice == 3) {\n            require(myMember.vitality >= 3);\n            myMember.armMuscle += 1 * myMember.increaseRatio;\n            myMember.vitality -= 3;\n            \n        } else  if (choice == 4) {\n            require(myMember.vitality >= 7);\n            myMember.legMuscle += 1 * myMember.increaseRatio;\n            myMember.vitality -= 7;\n            \n        } else {\n            \n        }\n        \n        myMember.increaseRatio = 1;\n        \n    }\n    \n    //休息时体力值恢复到最大，每小时恢复一点体力值\n    function RestBody (uint256 id) external {\n        \n        require(msg.sender == bodyToOwner[id]);\n        \n        member storage myMember = members[id];\n        \n        uint restHour = (now - myMember.LaststartRestTime)/3600;\n        \n     \n        myMember.vitality += restHour;\n        \n        if (myMember.vitality > 10){\n            myMember.vitality = 10;\n        }\n        \n        myMember.LaststartRestTime = now;\n        \n    }\n    \n    \n    //摄入充足营养会增加三倍效率\n    function IncreaseNutrition(uint256 id) external {\n        require(msg.sender == bodyToOwner[id]);\n        \n        member storage myMember = members[id];\n        \n        myMember.increaseRatio = 3;\n        \n    }\n    \n    \n    //学习知识会增加两倍的效率\n    function StudyKnowledge(uint256 id) external {\n        require(msg.sender == bodyToOwner[id]);\n        \n        member storage myMember = members[id];\n        \n        myMember.increaseRatio = 2;\n    }\n    \n}\n\n\n",
  "sourcePath": "/home/ac130/Desktop/EthHealthFit/contracts/Fitbody.sol",
  "compiler": {
    "name": "solc",
    "version": "0.5.0+commit.1d4f565a.Emscripten.clang"
  },
  "schemaVersion": "3.0.0",
  "updatedAt": "2018-12-26T16:46:02.091Z",
  "devdoc": {
    "methods": {
      "transferOwnership(address)": {
        "details": "Allows the current owner to transfer control of the contract to a newOwner.",
        "params": {
          "newOwner": "The address to transfer ownership to."
        }
      }
    }
  },
  "userdoc": {
    "methods": {}
  }
}