{
  "contractName": "Fitbody",
  "abi": [
    {
      "constant": true,
      "inputs": [
        {
          "name": "",
          "type": "uint256"
        }
      ],
      "name": "members",
      "outputs": [
        {
          "name": "backMuscle",
          "type": "uint256"
        },
        {
          "name": "chestMuscle",
          "type": "uint256"
        },
        {
          "name": "armMuscle",
          "type": "uint256"
        },
        {
          "name": "legMuscle",
          "type": "uint256"
        },
        {
          "name": "vitality",
          "type": "uint256"
        },
        {
          "name": "name",
          "type": "string"
        },
        {
          "name": "amount",
          "type": "uint256"
        },
        {
          "name": "LaststartRestTime",
          "type": "uint256"
        },
        {
          "name": "increaseRatio",
          "type": "uint256"
        },
        {
          "name": "state",
          "type": "uint256"
        }
      ],
      "payable": false,
      "stateMutability": "view",
      "type": "function"
    },
    {
      "constant": true,
      "inputs": [],
      "name": "owner",
      "outputs": [
        {
          "name": "",
          "type": "address"
        }
      ],
      "payable": false,
      "stateMutability": "view",
      "type": "function"
    },
    {
      "constant": true,
      "inputs": [
        {
          "name": "",
          "type": "uint256"
        }
      ],
      "name": "bodyToOwner",
      "outputs": [
        {
          "name": "",
          "type": "address"
        }
      ],
      "payable": false,
      "stateMutability": "view",
      "type": "function"
    },
    {
      "constant": false,
      "inputs": [
        {
          "name": "newOwner",
          "type": "address"
        }
      ],
      "name": "transferOwnership",
      "outputs": [],
      "payable": false,
      "stateMutability": "nonpayable",
      "type": "function"
    },
    {
      "anonymous": false,
      "inputs": [
        {
          "indexed": true,
          "name": "previousOwner",
          "type": "address"
        },
        {
          "indexed": true,
          "name": "newOwner",
          "type": "address"
        }
      ],
      "name": "OwnershipTransferred",
      "type": "event"
    },
    {
      "constant": false,
      "inputs": [
        {
          "name": "_name",
          "type": "string"
        }
      ],
      "name": "creatMember",
      "outputs": [],
      "payable": true,
      "stateMutability": "payable",
      "type": "function"
    },
    {
      "constant": true,
      "inputs": [],
      "name": "getBodyCount",
      "outputs": [
        {
          "name": "",
          "type": "uint256"
        }
      ],
      "payable": false,
      "stateMutability": "view",
      "type": "function"
    },
    {
      "constant": false,
      "inputs": [
        {
          "name": "id",
          "type": "uint256"
        },
        {
          "name": "choice",
          "type": "uint256"
        }
      ],
      "name": "TrainBody",
      "outputs": [],
      "payable": false,
      "stateMutability": "nonpayable",
      "type": "function"
    },
    {
      "constant": false,
      "inputs": [
        {
          "name": "id",
          "type": "uint256"
        }
      ],
      "name": "RestBody",
      "outputs": [],
      "payable": false,
      "stateMutability": "nonpayable",
      "type": "function"
    },
    {
      "constant": false,
      "inputs": [
        {
          "name": "id",
          "type": "uint256"
        }
      ],
      "name": "IncreaseNutrition",
      "outputs": [],
      "payable": false,
      "stateMutability": "nonpayable",
      "type": "function"
    },
    {
      "constant": false,
      "inputs": [
        {
          "name": "id",
          "type": "uint256"
        }
      ],
      "name": "StudyKnowledge",
      "outputs": [],
      "payable": false,
      "stateMutability": "nonpayable",
      "type": "function"
    }
  ],
  "bytecode": "0x6080604052336000806101000a81548173ffffffffffffffffffffffffffffffffffffffff021916908373ffffffffffffffffffffffffffffffffffffffff160217905550610ee6806100536000396000f3fe6080604052600436106100a4576000357c0100000000000000000000000000000000000000000000000000000000900463ffffffff1680630bd2aa29146100a9578063240a1cff146100e457806325f489e31461011f578063361f09c2146101985780635daf08ca146101d35780638da5cb5b146102c6578063bff3091d1461031d578063c8bf98c714610362578063d89edbaa146103dd578063f2fde38b14610408575b600080fd5b3480156100b557600080fd5b506100e2600480360360208110156100cc57600080fd5b8101908080359060200190929190505050610459565b005b3480156100f057600080fd5b5061011d6004803603602081101561010757600080fd5b810190808035906020019092919050505061055e565b005b6101966004803603602081101561013557600080fd5b810190808035906020019064010000000081111561015257600080fd5b82018360208201111561016457600080fd5b8035906020019184600183028401116401000000008311171561018657600080fd5b9091929391929390505050610629565b005b3480156101a457600080fd5b506101d1600480360360208110156101bb57600080fd5b8101908080359060200190929190505050610683565b005b3480156101df57600080fd5b5061020c600480360360208110156101f657600080fd5b810190808035906020019092919050505061074e565b604051808b81526020018a815260200189815260200188815260200187815260200180602001868152602001858152602001848152602001838152602001828103825287818151815260200191508051906020019080838360005b83811015610282578082015181840152602081019050610267565b50505050905090810190601f1680156102af5780820380516001836020036101000a031916815260200191505b509b50505050505050505050505060405180910390f35b3480156102d257600080fd5b506102db610849565b604051808273ffffffffffffffffffffffffffffffffffffffff1673ffffffffffffffffffffffffffffffffffffffff16815260200191505060405180910390f35b34801561032957600080fd5b506103606004803603604081101561034057600080fd5b81019080803590602001909291908035906020019092919050505061086e565b005b34801561036e57600080fd5b5061039b6004803603602081101561038557600080fd5b8101908080359060200190929190505050610aa6565b604051808273ffffffffffffffffffffffffffffffffffffffff1673ffffffffffffffffffffffffffffffffffffffff16815260200191505060405180910390f35b3480156103e957600080fd5b506103f2610ad9565b6040518082815260200191505060405180910390f35b34801561041457600080fd5b506104576004803603602081101561042b57600080fd5b81019080803573ffffffffffffffffffffffffffffffffffffffff169060200190929190505050610ae6565b005b6001600082815260200190815260200160002060009054906101000a900473ffffffffffffffffffffffffffffffffffffffff1673ffffffffffffffffffffffffffffffffffffffff163373ffffffffffffffffffffffffffffffffffffffff161415156104c657600080fd5b60006003828154811015156104d757fe5b90600052602060002090600a02019050600081600901541415610503576001816009018190555061055a565b6000610e108260070154420381151561051857fe5b049050808260040160008282540192505081905550600a8260040154111561054557600a82600401819055505b42826007018190555060008260090181905550505b5050565b600060038281548110151561056f57fe5b90600052602060002090600a02016009015414151561058d57600080fd5b6001600082815260200190815260200160002060009054906101000a900473ffffffffffffffffffffffffffffffffffffffff1673ffffffffffffffffffffffffffffffffffffffff163373ffffffffffffffffffffffffffffffffffffffff161415156105fa57600080fd5b600060038281548110151561060b57fe5b90600052602060002090600a02019050600281600801819055505050565b61067f600180600180600a87878080601f016020809104026020016040519081016040528093929190818152602001838380828437600081840152601f19601f8201169050808301925050505050505034610c3b565b5050565b600060038281548110151561069457fe5b90600052602060002090600a0201600901541415156106b257600080fd5b6001600082815260200190815260200160002060009054906101000a900473ffffffffffffffffffffffffffffffffffffffff1673ffffffffffffffffffffffffffffffffffffffff163373ffffffffffffffffffffffffffffffffffffffff1614151561071f57600080fd5b600060038281548110151561073057fe5b90600052602060002090600a02019050600381600801819055505050565b60038181548110151561075d57fe5b90600052602060002090600a0201600091509050806000015490806001015490806002015490806003015490806004015490806005018054600181600116156101000203166002900480601f0160208091040260200160405190810160405280929190818152602001828054600181600116156101000203166002900480156108275780601f106107fc57610100808354040283529160200191610827565b820191906000526020600020905b81548152906001019060200180831161080a57829003601f168201915b505050505090806006015490806007015490806008015490806009015490508a565b6000809054906101000a900473ffffffffffffffffffffffffffffffffffffffff1681565b6001600083815260200190815260200160002060009054906101000a900473ffffffffffffffffffffffffffffffffffffffff1673ffffffffffffffffffffffffffffffffffffffff163373ffffffffffffffffffffffffffffffffffffffff161415156108db57600080fd5b60006003838154811015156108ec57fe5b90600052602060002090600a02016009015414151561090a57600080fd5b60018114806109195750600281145b806109245750600381145b8061092f5750600481145b151561093a57600080fd5b600060038381548110151561094b57fe5b90600052602060002090600a0201905060018214156109a957600681600401541015151561097857600080fd5b8060080154600102816000016000828254019250508190555060068160040160008282540392505081905550610a97565b60028214156109f75760058160040154101515156109c657600080fd5b8060080154600102816001016000828254019250508190555060058160040160008282540392505081905550610a96565b6003821415610a45576003816004015410151515610a1457600080fd5b8060080154600102816002016000828254019250508190555060038160040160008282540392505081905550610a95565b6004821415610a93576007816004015410151515610a6257600080fd5b8060080154600102816003016000828254019250508190555060078160040160008282540392505081905550610a94565b5b5b5b5b60018160080181905550505050565b60016020528060005260406000206000915054906101000a900473ffffffffffffffffffffffffffffffffffffffff1681565b6000600380549050905090565b6000809054906101000a900473ffffffffffffffffffffffffffffffffffffffff1673ffffffffffffffffffffffffffffffffffffffff163373ffffffffffffffffffffffffffffffffffffffff16141515610b4157600080fd5b600073ffffffffffffffffffffffffffffffffffffffff168173ffffffffffffffffffffffffffffffffffffffff1614151515610b7d57600080fd5b8073ffffffffffffffffffffffffffffffffffffffff166000809054906101000a900473ffffffffffffffffffffffffffffffffffffffff1673ffffffffffffffffffffffffffffffffffffffff167f8be0079c531659141344cd1fd0a4f28419497f9722a3daafe3b4186f6b6457e060405160405180910390a3806000806101000a81548173ffffffffffffffffffffffffffffffffffffffff021916908373ffffffffffffffffffffffffffffffffffffffff16021790555050565b600060016003610140604051908101604052808b81526020018a81526020018981526020018881526020018781526020018681526020018581526020014281526020016001815260200160008152509080600181540180825580915050906001820390600052602060002090600a020160009091929091909150600082015181600001556020820151816001015560408201518160020155606082015181600301556080820151816004015560a0820151816005019080519060200190610d03929190610e15565b5060c0820151816006015560e08201518160070155610100820151816008015561012082015181600901555050039050336001600083815260200190815260200160002060006101000a81548173ffffffffffffffffffffffffffffffffffffffff021916908373ffffffffffffffffffffffffffffffffffffffff1602179055506001600260003373ffffffffffffffffffffffffffffffffffffffff1673ffffffffffffffffffffffffffffffffffffffff1681526020019081526020016000205401600260003373ffffffffffffffffffffffffffffffffffffffff1673ffffffffffffffffffffffffffffffffffffffff168152602001908152602001600020819055505050505050505050565b828054600181600116156101000203166002900490600052602060002090601f016020900481019282601f10610e5657805160ff1916838001178555610e84565b82800160010185558215610e84579182015b82811115610e83578251825591602001919060010190610e68565b5b509050610e919190610e95565b5090565b610eb791905b80821115610eb3576000816000905550600101610e9b565b5090565b9056fea165627a7a72305820ddca2e64f4bd1586f179e7b76b40b9f1d76f80418739766476f6b91bae6c748e0029",
  "source": "pragma solidity ^0.5.0;\n\nimport \"./Ownable.sol\";\n\n\ncontract Fitbody is Ownable {\n\n    //成员属性\n    struct member {\n        uint backMuscle;   //背部肌肉 6\n        uint chestMuscle;  //胸部肌肉 5\n        // uint shoulderMuscle ; //肩部肌肉 4\n        uint armMuscle; //手臂肌肉 3\n        // uint bellyMuscle; //腹部 2\n        uint legMuscle; //腿 7\n        uint vitality;//体力值  10\n        string name;\n        uint256 amount;\n        uint256 LaststartRestTime;\n        uint increaseRatio;\n        uint state;\n       \n    }\n    \n\n    //所有者地址\n    mapping (uint256 => address) public bodyToOwner;\n    //当前账户下健身人的个数\n    mapping (address => uint256) internal ownerBodyCount;\n    \n    //当前账户下的健身人数组\n    member[] public  members;\n    \n    \n    \n    //创建健身人的私有构造函数\n    function _createMember(uint _backMuscle, uint _chestMuscle,uint _armMuscle, uint _legMuscle, uint _vitality, string memory _name, uint256 _amount) private {\n        //require(msg.value >= 0.001 ether);\n        \n        uint256 id = members.push(member( _backMuscle,  _chestMuscle,_armMuscle, _legMuscle,  _vitality, _name, _amount, now, 1, 0)) - 1;\n        bodyToOwner[id] = msg.sender;\n        ownerBodyCount[msg.sender] = ownerBodyCount[msg.sender] + 1;\n        \n    }\n    \n    //创建健身人\n    function creatMember(string  calldata _name) payable external {\n        \n        _createMember(1,1,1,1,10, _name, msg.value);\n    }\n    \n\n    function getBodyCount() external view returns(uint256) {\n        return members.length;\n    }\n    \n    //训练训练不同部位，使不同部位的肌肉量增加\n    function TrainBody (uint256 id, uint choice) external  {\n        \n        require(msg.sender == bodyToOwner[id]);\n\n        require(members[id].state == 0);\n        \n        require(choice == 1 || choice == 2 || choice == 3 || choice == 4);\n        \n        member storage myMember = members[id];\n        \n        \n        if (choice == 1) {\n            require(myMember.vitality >= 6);\n            myMember.backMuscle += 1 * myMember.increaseRatio;\n            myMember.vitality -= 6;\n            \n            \n        } else  if (choice == 2) {\n            require(myMember.vitality >= 5);\n            myMember.chestMuscle += 1 * myMember.increaseRatio;\n            myMember.vitality -= 5;\n            \n\n        } else  if (choice == 3) {\n            require(myMember.vitality >= 3);\n            myMember.armMuscle += 1 * myMember.increaseRatio;\n            myMember.vitality -= 3;\n            \n        } else  if (choice == 4) {\n            require(myMember.vitality >= 7);\n            myMember.legMuscle += 1 * myMember.increaseRatio;\n            myMember.vitality -= 7;\n            \n        } else {\n            \n        }\n        \n        myMember.increaseRatio = 1;\n        \n    }\n    \n    //休息时体力值恢复到最大，每小时恢复一点体力值\n    function RestBody (uint256 id) external {\n        \n        require(msg.sender == bodyToOwner[id]);\n        \n        member storage myMember = members[id];\n        //还没休息 就进入休息状态\n        if (myMember.state == 0) {\n\n            myMember.state = 1;\n        //否则表示休息完成 增加体力值\n        } else {\n            //计算经过的小时\n            uint restHour = (now - myMember.LaststartRestTime)/3600;\n            //每小时增加一个体力\n            myMember.vitality += restHour;\n            \n            if (myMember.vitality > 10){\n                myMember.vitality = 10;\n            }\n            //修改LaststartRestTime\n            myMember.LaststartRestTime = now;\n            //变成没休息的状态\n            myMember.state = 0;\n\n        }\n        \n    }\n    \n    \n    //摄入充足营养会增加三倍效率\n    function IncreaseNutrition(uint256 id) external {\n        require(members[id].state == 0);\n                \n        require(msg.sender == bodyToOwner[id]);\n        \n        member storage myMember = members[id];\n        \n        myMember.increaseRatio = 3;\n        \n    }\n    \n    \n    //学习知识会增加两倍的效率\n    function StudyKnowledge(uint256 id) external {\n        require(members[id].state == 0);\n        \n        require(msg.sender == bodyToOwner[id]);\n        \n        member storage myMember = members[id];\n        \n        myMember.increaseRatio = 2;\n    }\n    \n}\n\n\n",
  "sourcePath": "/home/ac130/Desktop/EthHealthFit/contracts/Fitbody.sol",
  "compiler": {
    "name": "solc",
    "version": "0.5.0+commit.1d4f565a.Emscripten.clang"
  },
  "schemaVersion": "3.0.0",
  "updatedAt": "2018-12-29T15:44:06.574Z",
  "devdoc": {
    "methods": {
      "transferOwnership(address)": {
        "details": "Allows the current owner to transfer control of the contract to a newOwner.",
        "params": {
          "newOwner": "The address to transfer ownership to."
        }
      }
    }
  },
  "userdoc": {
    "methods": {}
  }
}